:040000005BEF00F0C2
:10000800FACFBAF0FBCFBBF0E9CFBCF0CCEF07F0EA
:10001800D8CF1DF0E8CF1EF0E0CF1FF0FACF20F0C8
:10002800FBCF21F0E9CF22F0EACF23F0E1CF24F093
:10003800E2CF25F0D9CF26F0DACF27F0F3CF28F09A
:10004800F4CF29F0F6CF2AF0F7CF2BF0F8CF2CF029
:10005800F5CF2DF09EA003D09E90FDEC0AF09EAA4D
:1000680003D09E9A82EC07F02DC0F5FF2CC0F8FF54
:100078002BC0F7FF2AC0F6FF29C0F4FF28C0F3FF02
:1000880027C0DAFF26C0D9FF25C0E2FF24C0E1FF60
:1000980023C0EAFF22C0E9FF21C0FBFF20C0FAFF0E
:1000A8001FC0E0FF1EC0E8FF1DC0D8FF100013EFFF
:1000B8000BF0000E0001B96F000E0001B46F000EC6
:1000C8000001B86F000E0001B76F000E0001B56F98
:1000D800C6AC24D0C69C000120EE0CF00001CC5127
:1000E800D9260001CD51DA22050EDF6E010E00017E
:1000F800B56F000120EE0EF00001CC51D9260001A9
:10010800CD51DA22DF2A000120EE0DF00001CC519A
:10011800D9260001CD51DA22040EDF6EC7A005D022
:10012800C9CFB6F0010E0001B96F0001B5679FD1C4
:1001380088D1C7A69CD10001B951C8EC06F00001CE
:1001480020EE0CF00001CC51D9260001CD51DA2265
:10015800080EDF628CD1000E0001B96F010E00019C
:10016800B76F85D1C7A82AD0000120EE0BF0000197
:10017800CC51D9260001CD51DA22DF2A0001B9512C
:10018800D8B454D1C7BA04D0010E0001B86F4ED10B
:10019800000120EE0EF00001CC51D9260001CD510E
:1001A800DA22DF2A000120EE0DF00001CC51D92619
:1001B8000001CD51DA22060EDF6E38D10001B951A7
:1001C800D8B455D1000120EE0BF00001CC51D9264E
:1001D8000001CD51DA22DF2AC7BA19D0C7B40BD033
:1001E800000120EE0CF00001CC51D9260001CD51C0
:1001F800DA22070E71D0000120EE0CF00001CC517C
:10020800D9260001CD51DA22080EDF6E08D100018F
:1002180020EE0EF00001CC51D9260001CD51DA2292
:10022800DF2A000120EE0CF00001CC51D926000194
:10023800CD51DA22050EDF6E000120EE0DF000012F
:10024800CC51D9260001CD51DA22060E45D0000145
:1002580020EE1AF00001CC51D9260001CD51DA2246
:10026800DF500001B06F000120EE19F00001CC5101
:10027800D9260001CD51DA22DF500001B05DD8B097
:10028800D5D0000120EE1AF00001CC51D92600018A
:10029800CD51DA22DF500001B06F0001B051010DDD
:1002A8000F0EF326000EF422F3500001CC25D96E70
:1002B800F4500001CD21DA6EDF50C96E000120EE46
:1002C8001AF00001CC51D9260001CD51DA22DF2ADB
:1002D800010E0001B46FCBD0DF6EC9D0C7A85AD0C9
:1002E800000120EE0BF00001CC51D9260001CD51C0
:1002F800DA22DF2A0001B951D8B448D0C7AA25D0DC
:10030800000120EE0AF00001CC51D9260001CD51A0
:10031800DA22DF500001B06F0001B051010DF35037
:100328000001CC25D96EF4500001CD21DA6E000110
:10033800B6C0DFFF000120EE0AF00001CC51D9263B
:100348000001CD51DA22DF2A21D0000120EE0EF083
:100358000001CC51D9260001CD51DA22DF2A000153
:1003680020EE0DF00001CC51D9260001CD51DA2242
:10037800060EDF6E000120EE0CF00001CC51D926EC
:100388000001CD51DA22050EDF6E50D0010E0001BA
:10039800B86F4CD00001B951D8B469D0000120EE33
:1003A8000BF00001CC51D9260001CD51DA22DF2A09
:1003B800C7AA25D0000120EE0AF00001CC51D926A9
:1003C8000001CD51DA22DF500001B06F0001B051B9
:1003D800010DF3500001CC25D96EF4500001CD2158
:1003E800DA6E0001B6C0DFFF000120EE0AF000015E
:1003F800CC51D9260001CD51DA22DF2A38D0C7A442
:10040800C7D6000120EE0CF00001CC51D92600011E
:10041800CD51DA22080EDF6E010E0001B86F010E11
:100428000001B76F000E0001B96F21D0000120EE66
:100438000CF00001CC51D9260001CD51DA22050E6D
:100448004BD7000120EE0CF00001CC51D926000159
:10045800CD51DA22DF50050AD8B46BD6030AD8B4D6
:1004680081D6010AD8B43AD70F0AD8B4F0D6000119
:10047800B96704D00001B451D8B402D0C6A8C68860
:10048800000120EE0AF00001CC51D9260001CD511F
:10049800DA22080EDF6423D00001B86720D00001FB
:1004A80020EE0CF00001CC51D9260001CD51DA2202
:1004B800050EDF6E000120EE0EF00001CC51D926AA
:1004C8000001CD51DA22DF2A000120EE0DF00001F3
:1004D800CC51D9260001CD51DA22070EDF6E00017A
:1004E800B851D8B43FD0000120EE0BF00001CC5138
:1004F800D9260001CD51DA22000110EE0AF00001E0
:10050800CC51E1260001CD51E222E7500001B06F45
:100518000001B051010DF3500001CC25E16EF450FB
:100528000001CD21E26EDFCFE7FF280E0001AC6F9E
:100538000001CDC0AEF00001CCC0ADF0000120EE4E
:100548000AF00001CC51D9260001CD51DA22DF5042
:100558000001B06F0001B029E6EC0AF0000120EEBE
:100568000AF041D0000120EE0EF00001CC51D9264E
:100578000001CD51DA22DF50D8B43DD0000120EE81
:100588000EF00001CC51D9260001CD51DA22DF50FE
:100598000001B16F000120EE0DF00001CC51D92609
:1005A8000001CD51DA22DF500001B26F000120EEC8
:1005B8000BF00001CC51D9260001CD51DA22DF50D1
:1005C8000001B36F290E0001AC6F0001000E00019D
:1005D800AE6F0001B10E0001AD6F030EE6EC0AF03C
:1005E800000120EE0EF00001CC51D9260001CD51BA
:1005F800DA22000EDF6E0001B751D8B412002A0EBD
:100608000001AC6F0001CDC0AEF00001CCC0ADF070
:10061800000EE6EC0AF0000E0001B76F1200E00EC3
:10062800D36E9B8C0101010E0001C96F0101D10E2F
:100638000001C86F60EC0BF00101010E0001C96FE9
:100648000101DA0E0001C86F7DEC08F00101010E0E
:100658000001C96F0101D60E0001C86F91EC0BF0C3
:100668009CEC09F0000E936E000E8A6E960E3BEC21
:100678000BF0000E0001C86F9B0E2EEC0AF09F9045
:100688009F9A9F869E0E27EC0BF09D86000E000118
:10069800C96F330E0001C86F7C0E0BEC08F0BDEC7F
:1006A8000BF07E0E7EEC0BF0FA0E00F0E82EFDD774
:1006B8000101010E0101B76F0101D80E0101B66FEA
:1006C8000101010E0101B96F0101C10E0101B86FED
:1006D8000A0E67EC0AF00101D96F0101D9BF61D098
:1006E80052D00101010E0101A36F0101CE0E0101DB
:1006F800A26F0101D8C1A4F10101A56B0101D95173
:100708000101A66F0101A76B0101A6BFA70701019F
:10071800010E0101A96F0101C10E0101A86F88EC4A
:100728000BF03FD0C1C1D0F13CD0020E0101D96F0E
:10073800550E0101C16FAA0E0101C26F17D0010E3B
:100748000101D96F3A0E04D0010E0101D96FA30E31
:100758000101C16F0BD00101D051A80AD8B4EFD75D
:10076800010AD8B4F1D7030AD8B4DFD70101010EC2
:100778000001C96F0101C10E0001C86F0101D95103
:100788005AEC05F00ED00101D8510A0AD8B4A9D7FD
:10079800220AD8B4C7D7010AD8B4C4D7030AD8B430
:1007A800DAD70101010E0101B76F0101D80E01016D
:1007B800B66F0101010E0101B96F0101C10E0101FE
:1007C800B86F0A0E4CEC0AF00101D96F0101D9BFCC
:1007D80068D742D00101010E0101B96F0101D60E9F
:1007E8000101B86F0101D8C1BAF10101BB6B010168
:1007F800D9510101BC6F0101BD6B0101BCBFBD072F
:100808000101010E0101BF6F0101C10E0101BE6F9F
:1008180012EC09F046D70101010E0101A36F010195
:10082800CC0E0101A26F0101D8C1A4F10101A56B91
:100838000101D9510101A66F0101A76B0101A6BFF2
:10084800A7070101010E0101A96F0101C10E0101F4
:10085800A86F9DEC0AF025D70101D8510B0AD8B42E
:10086800B9D7150AD8B4D7D7010AD8B4D4D719D765
:10087800010120EE35F00101A851D9260101A95145
:10088800DA22DF500101B16F0101B1510D0DF350B2
:100898000101A8250101B46FF4500101A92101014A
:1008A800B56F010EB4C1D9FFB5C1DAFFDF626DD0F3
:1008B800010120EE01F00101B451D9260101B55121
:1008C800DA22DF500101AA5DD8B002D0FD0E120075
:1008D800010120EE01F00101B451D9260101B55101
:1008E800DA22DF500101AF6F0101AF510101B26F90
:1008F8000101B36B0101AEC1A3F10101ADC1A2F1C8
:10090800030E0101B4250101AF6F000E0101B521ED
:100918000101B06FAFC1A4F1B0C1A5F1B2C1A6F198
:10092800B3C1A7F170EC09F0010120EE35F0010127
:10093800A851D9260101A951DA22010110EE35F09A
:100948000101A851E1260101A951E222E750010164
:10095800AF6F0101AF29030BDF6E010120EE02F03A
:100968000101B451D9260101B551DA22ABC1E1FF29
:10097800ACC1E2FFDFCFE7FFB4C1D9FFB5C1DAFFF1
:10098800000EDF6E0101B2511200FC0E12000001D0
:1009980020EE35F00001A051D9260001A151DA223C
:1009A800DF500001A96F0001A9510D0DF35000019E
:1009B800A0250001AC6FF4500001A1210001AD6F2A
:1009C800010EACC0D9FFADC0DAFFDF626DD0000107
:1009D80020EE01F00001AC51D9260001AD51DA2218
:1009E800DF500001A25DD8B002D0FD0E1200000158
:1009F80020EE01F00001AC51D9260001AD51DA22F8
:100A0800DF500001A76F0001A7510001AA6F000184
:100A1800AB6B0001A6C097F00001A5C096F0030ECD
:100A28000001AC250001A76F000E0001AD210001F7
:100A3800A86FA7C098F0A8C099F0AAC09AF0ABC058
:100A48009BF0C7EC09F0000120EE35F00001A05141
:100A5800D9260001A151DA22000110EE35F000017B
:100A6800A051E1260001A151E222E7500001A76F41
:100A78000001A729030BDF6E000120EE02F0000140
:100A8800AC51D9260001AD51DA22A3C0E1FFA4C0C0
:100A9800E2FFDFCFE7FFACC0D9FFADC0DAFF000E41
:100AA800DF6E0001AA511200FC0E12000101A26FB4
:100AB800000120EE19F00001CC51D9260001CD51DA
:100AC800DA22000EDF6E3ED0000120EE19F00001A0
:100AD800CC51D9260001CD51DA22DF500001CA6F6E
:100AE8000001CA51010DF3500001C825D96EF45018
:100AF8000001C921DA6E000110EE19F00001CC5195
:100B0800E1260001CD51E222E7500001CB6F000140
:100B1800CB51010D0F0EF326000EF422F350000105
:100B2800CC25E16EF4500001CD21E26EDFCFE7FF66
:100B3800000120EE19F00001CC51D9260001CD5159
:100B4800DA22DF2A000120EE19F00001CC51D92663
:100B58000001CD51DA22DF500001CA6F0101A25114
:100B68000001CA5DD8A0B0D7000120EE19F000013D
:100B7800CC51D9260001CD51DA220101A2C1DFFFF3
:100B8800000120EE1AF00001CC51D9260001CD5108
:100B9800DA22010EDF6E000120EE0FF00001CC51C9
:100BA800D9260001CD51DA22DF50C96EC68812005D
:100BB8000101AAC1AFF10101B06B010120EE34F0CF
:100BC8000101A851D9260101A951DA22DF500101FA
:100BD800B16F0101B1510D0DF3500101A8250101BB
:100BE800B26FF4500101A9210101B36FB2C1D9FF5D
:100BF800B3C1DAFFDF50D8B402D0FF0E12000101F2
:100C080020EE01F00101B251D9260101B351DA22D7
:100C18000101AAC1DFFF010120EE02F00101B2517A
:100C2800D9260101B351DA220101ABC1DFFF030E5E
:100C38000101B2250101A26F000E0101B3210101DA
:100C4800A36F0101ADC1A5F10101ACC1A4F1AFC110
:100C5800A6F1B0C1A7F170EC09F0010120EE34F063
:100C68000101A851D9260101A951DA22010110EE8A
:100C780034F00101A851E1260101A951E222E7500F
:100C88000101AE6F0101AE29030BDF6EB2C1D9FFBE
:100C9800B3C1DAFF010EDF6E010E12000001A2C01F
:100CA800A7F00001A86B000120EE34F00001A0516C
:100CB800D9260001A151DA22DF500001A96F0001F5
:100CC800A9510D0DF3500001A0250001AA6FF450A1
:100CD8000001A1210001AB6FAAC0D9FFABC0DAFFA8
:100CE800DF50D8B402D0FF0E1200000120EE01F050
:100CF8000001AA51D9260001AB51DA220001A2C095
:100D0800DFFF000120EE02F00001AA51D926000100
:100D1800AB51DA220001A3C0DFFF030E0001AA25B0
:100D28000001966F000E0001AB210001976F0001D2
:100D3800A5C099F00001A4C098F0A7C09AF0A8C077
:100D48009BF0C7EC09F0000120EE34F00001A0513F
:100D5800D9260001A151DA22000110EE34F0000179
:100D6800A051E1260001A151E222E7500001A66F3F
:100D78000001A629030BDF6EAAC0D9FFABC0DAFFBA
:100D8800010EDF6E010E12000001966F000120EEC9
:100D98000BF00001CC51D9260001CD51DA22010E09
:100DA800DF6E000120EE0AF00001CC51D9260001C7
:100DB800CD51DA22000EDF6E00019651D8B43DD035
:100DC800C7AA21D0000120EE0CF00001CC51D92691
:100DD8000001CD51DA22050EDF6E000120EE0EF083
:100DE8000001CC51D9260001CD51DA22DF2A0001B9
:100DF80020EE0DF00001CC51D9260001CD51DA22A8
:100E0800050EDF6E1200C7A40CD0000120EE0CF016
:100E18000001CC51D9260001CD51DA22080EDF6E2F
:100E28001200000120EE0CF00001CC51D92600017F
:100E3800CD51DA22070EDF6E1200000120EE0CF011
:100E48000001CC51D9260001CD51DA22060EDF6E01
:100E580012000DC012F0136A20EE34F00B50D926A0
:100E68000C50DA22DF50146E14500D0DF3500B2481
:100E7800156EF4500C20166E15C0D9FF16C0DAFF97
:100E8800DF50D8B402D0FF0E120020EE01F015504A
:100E9800D9261650DA220DC0DFFF20EE02F01550D9
:100EA800D9261650DA220EC0DFFF030E1524016E74
:100EB800000E1620026E10C004F00FC003F012C01E
:100EC80005F013C006F0EFEC09F020EE34F00B50FB
:100ED800D9260C50DA2210EE34F00B50E1260C50D3
:100EE800E222E750116E1128030BDF6E15C0D9FFFF
:100EF80016C0DAFF010EDF6E010E12009EAA3AD06C
:100F080020EE04F03150D9263250DA22DF501B6E21
:100F18001B50010DF3503124D96EF4503220DA6E93
:100F28006FEC0BF0DF6E20EE04F03150D926325012
:100F3800DA22DF2A20EE04F03150D9263250DA22A4
:100F4800040EDF6217D01F0E176E32C019F031C0C1
:100F580018F020EE04F03150D9263250DA22DF5052
:100F68004EEC0BF020EE04F03150D9263250DA2244
:100F7800000EDF6E2FA61200AC98AC881E0E176EFE
:100F8800000E196E000E186E000E4EEC0BF01200DB
:100F9800EACFBDF0E1CFBEF0E2CFBFF0D9CFC0F0CD
:100FA800DACFC1F0F3CFC2F0F4CFC3F0F6CFC4F07C
:100FB800F7CFC5F0F8CFC6F0F5CFC7F09EA603D09F
:100FC8009E965DEC00F0F2A403D0F29446EC08F093
:100FD80041EC09F0C7C0F5FFC6C0F8FFC5C0F7FF70
:100FE800C4C0F6FFC3C0F4FFC2C0F3FFC1C0DAFF3C
:100FF800C0C0D9FFBFC0E2FFBEC0E1FFBDC0EAFF6D
:10100800BCC0E9FFBBC0FBFFBAC0FAFF110000017A
:10101800CA6F000EA86E000E9C6E0001CAB1A888A7
:101028000001CAA302D0A88C9C8C0001CAB5A88E66
:101038000001CAA702D09C8801D09C8A0001CAA9D5
:1010480002D0A88401D0A8940001CABB9C860001E4
:10105800CAAD02D0A38A01D0A39A0001CAAF02D0B8
:10106800A38801D0A398C8C0ABFF0001C9C0A2F1F2
:10107800A2C1A3F10101A46B0101A3517D6EA88A4D
:101088009C8E1200000E0001976F000E0001966FF3
:10109800ACEC0BF00001000E0001AF6F0001B50EC3
:1010A8000001AE6F0001000E0001B16F0001B70E24
:1010B8000001B06F020E82EC0AF00001B36F00016C
:1010C800B46B0001B3BFB4070001B351020AB411F5
:1010D800D8A412000A0E0001AC6F0001000E000136
:1010E800AE6F0001B70E0001AD6F020EE6EC0AF01C
:1010F80012000001C9C0CDF00001C8C0CCF0000149
:1011080020EE0AF00001CC51D9260001CD51DA2297
:10111800000EDF6E000120EE0BF00001CC51D92645
:101128000001CD51DA22000EDF6E000120EE0CF036
:101138000001CC51D9260001CD51DA22050EDF6E0F
:10114800000120EE0EF00001CC51D9260001CD514E
:10115800DA22000EDF6E1200000120EE34F00001EA
:10116800C851D9260001C951DA22000EDF6E0001EC
:1011780020EE35F00001C851D9260001C951DA2204
:10118800000EDF6E000E0001CA6F030E0001CA6573
:1011980001D012000001CA510D0DF3500001C825FD
:1011A800D96EF4500001C921DA6E000EDF6E00011D
:1011B800CA2B030E0001CA65EDD712000001CB51FE
:1011C800CA11D8B426D0010E0101A26F06D00001C1
:1011D800D890CA37CB370101A22B0001CBAFF7D784
:1011E8000001CA510001C85D0001CB510001C95975
:1011F800D8A008D00001CA510001C85F0001CB5136
:101208000001C95B0001D890CB33CA330101A22F7A
:10121800E7D7C8C0C8F0C9C0C9F01200B8C1D9FF23
:10122800B9C1DAFFDE2A000EDD22B8C1D9FFB9C183
:10123800DAFF0001DECFC8F00001DDCFC9F0000EF3
:101248000001CB6F0A0E0001CA6FE2EC08F0000142
:10125800C851090A0001C911D8A41200140E0101CD
:10126800B46F0101B9C1B6F10101B8C1B5F1020EFF
:10127800CFEC0AF00101C06F12002E6601D01200F7
:101288000FEC0AF00001995100019811D8A412003E
:10129800B5EC0BF00001975100019611D8B412007B
:1012A8000101010E0001976F01016C0E0001966F9C
:1012B800B6EC0AF00009D8A412000001000E0001E3
:1012C800976F0001600E0001966FB6EC0AF00009F6
:1012D800D8B4C1EC0BF0120001010001A5C1CBF09C
:1012E80001010001A4C1CAF001010001A3C1C9F0B4
:1012F80001010001A2C1C8F010D0CAC0D9FFCBC0FB
:10130800DAFFC8C0E1FFC9C0E2FFDFCFE7FF000195
:10131800CA4BCB2B0001C84BC92B0101A607D8A08B
:10132800A7070101A629D8B4A729D8B41200E5D780
:10133800000E2E6E0001000E0001C96F0001600E44
:101348000001C86FB0EC08F00101010E0001C96F7F
:1013580001016C0E0001C86FB0EC08F00101010E2C
:101368000001C96F0101360E0001C86FB0EC08F02A
:101378000101010E0001C96F0101000E0001C86FD3
:10138800B0EC08F01200000199C09FF0000198C06D
:101398009EF0000197C09DF0000196C09CF010D00F
:1013A8009EC0D9FF9FC0DAFF9CC0E1FF9DC0E2FF4D
:1013B800DFCFE7FF00019E4B9F2B00019C4B9D2B2D
:1013C80000019A07D8A09B0700019A29D8B49B2945
:1013D800D8B41200E5D704C00AF003C009F002C06F
:1013E80008F001C007F00ED009C0D9FF0AC0DAFF23
:1013F80007C0E1FF08C0E2FFDFCFE7FF094A0A2A7A
:10140800074A082A0506D8A006060528D8B40628DB
:10141800D8B41200E9D7F2AC07D0000E0001996FDA
:10142800000E0001986F1200B5EC0BF00001975107
:1014380000019611D8B407D0000E0001996F000E74
:101448000001986F1200000E0001996F010E000153
:10145800986F12000001CA6F0001C851F30B9A6E11
:10146800CAC0C9F07F0E0001C9170001D890C9355C
:10147800CD6E000ECF6E000ECE6E9E900001CAAFEC
:1014880002D09D8001D09D909ABE9A86CD80120090
:101498000101BA6F0001000E0101A96F0001600E81
:1014A8000101A86FBAC1AAF10101B7C1ACF10101EC
:1014B800B6C1ABF10101B9C1AEF10101B8C1ADF1DD
:1014C8003CEC04F012000101BA6F0101010E0101A8
:1014D800A96F01016C0E0101A86FBAC1AAF101013F
:1014E800B7C1ACF10101B6C1ABF10101B9C1AEF1AF
:1014F8000101B8C1ADF13CEC04F012000001B26F7B
:101508000101010E0001A16F0101000E0001A06F91
:10151800B2C0A2F00001AFC0A4F00001AEC0A3F0B9
:101528000001B1C0A6F00001B0C0A5F0CBEC04F0FA
:1015380012000101A4511E0AA511D8B4120001011C
:10154800A4511F0AA511D8A412000101A651010136
:10155800A825D96E0101A7510101A921DA6E000E53
:10156800DF6E1200000120EE35F000019651D926F9
:1015780000019751DA22DF500001986F000198515D
:101588000D0DF35000019625D96EF45000019721F6
:10159800DA6EDF5012000101B76F0101010E01017F
:1015A800A96F0101000E0101A86FB7C1AAF1B4C16A
:1015B800ABF10101B6C1ADF10101B5C1ACF1DCEC93
:1015C80005F012000001AF6F0101010E0001A16FCB
:1015D80001016C0E0001A06FAFC0A2F0ACC0A3F077
:1015E8000001AEC0A5F00001ADC0A4F052EC06F0B9
:1015F8001200A3EC0BF001C01BF002C01CF00B0E94
:10160800176E000E196E000E186E000E4EEC0BF0E1
:10161800000E026E000E016E9AEC0BF0120001EE45
:1016280000F0A20EEE6AE806FDE100EE60F0360E6C
:10163800EE6AE806FDE1306A2F6A2E6A000EF86E3F
:10164800000113EF03F00001C86F9388938AC8C0A4
:10165800C8FF000EC76E000EC66E000EC56E0E0ED9
:10166800C612C78E8188818AC580C68A1200000189
:10167800C86F0001C8517F0BD56E000ED76E000EE3
:10168800D66EF2940001C8AF02D0F28A01D0F29A65
:10169800D58E12001A6E0001000E0C6E0001600E4D
:1016A8000B6E1AC00DF017C00EF019C010F018C05C
:1016B8000FF02DEC07F012000001C9C032F0000154
:1016C800C8C031F020EE04F03150D9263250DA2269
:1016D800000EDF6E1200F20E2F16ACAC03D02F9066
:1016E800ACB02F80ACB42F84ACB22F86AFCF01F052
:1016F800015012000001C86FA8AC03D0A89030B206
:10170800A880C8C0A9FF120001010001A9C1C9F041
:1017180001010001A8C1C8F01200C8C0D9FFC9C0A2
:10172800DAFF000EDE6E000EDD6E120001C003F05F
:1017380002C004F004C0CFFF03C0CEFF1200CECF1A
:1017480003F0CFCF04F003C001F004C002F0120090
:1017580096C098F097C099F099C0D7FF98C0D6FF67
:101768001200000EF2AE010E0001966F0001976B99
:101778001200D08EF28EF28C1200D38E030012006B
:08FFF8008AF795FFF2F9FFF111
:00000001FF
