:040000005BEF00F0C2
:10000800FACF83F0FBCF84F0E9CF85F03DEF0FF016
:10001800D8CF1DF0E8CF1EF0E0CF1FF0FACF20F0C8
:10002800FBCF21F0E9CF22F0EACF23F0E1CF24F093
:10003800E2CF25F0D9CF26F0DACF27F0F3CF28F09A
:10004800F4CF29F0F6CF2AF0F7CF2BF0F8CF2CF029
:10005800F5CF2DF09EA003D09E90D3EC12F09EAA6F
:1000680003D09E9AAFEC0EF02DC0F5FF2CC0F8FF20
:100078002BC0F7FF2AC0F6FF29C0F4FF28C0F3FF02
:1000880027C0DAFF26C0D9FF25C0E2FF24C0E1FF60
:1000980023C0EAFF22C0E9FF21C0FBFF20C0FAFF0E
:1000A8001FC0E0FF1EC0E8FF1DC0D8FF1000FDEF15
:0200B80012F044
:100F0000000A0D72756E6E696E672E2E2E2000001F
:100F1000000E0001826F000E00017D6F000E0001C7
:100F2000816F000E0001806F000E00017E6FC6AC65
:100F300024D0C69C000120EE0CF00001CD51D92632
:100F40000001CE51DA22050EDF6E010E00017E6F28
:100F5000000120EE0EF00001CD51D9260001CE5146
:100F6000DA22DF2A000120EE0DF00001CD51D92652
:100F70000001CE51DA22040EDF6EC7A005D0C9CF22
:100F80007FF0010E0001826F00017E679FD188D142
:100F9000C7A69CD100018251F7EC0DF0000120EEB4
:100FA0000CF00001CD51D9260001CE51DA22080EF5
:100FB000DF628CD1000E0001826F010E0001806F94
:100FC00085D1C7A82AD0000120EE0BF00001CD5139
:100FD000D9260001CE51DA22DF2A00018251D8B48D
:100FE00054D1C7BA04D0010E0001816F4ED1000167
:100FF00020EE0EF00001CD51D9260001CE51DA22AB
:10100000DF2A000120EE0DF00001CD51D9260001AC
:10101000CE51DA22060EDF6E38D100018251D8B4EB
:1010200055D1000120EE0BF00001CD51D926000171
:10103000CE51DA22DF2AC7BA19D0C7B40BD00001CB
:1010400020EE0CF00001CD51D9260001CE51DA225C
:10105000070E71D0000120EE0CF00001CD51D92611
:101060000001CE51DA22080EDF6E08D1000120EE19
:101070000EF00001CD51D9260001CE51DA22DF2A2F
:10108000000120EE0CF00001CD51D9260001CE5117
:10109000DA22050EDF6E000120EE0DF00001CD51C9
:1010A000D9260001CE51DA22060E45D0000120EEED
:1010B0001AF00001CD51D9260001CE51DA22DF50BD
:1010C0000001796F000120EE19F00001CD51D92601
:1010D0000001CE51DA22DF500001795DD8B0D5D0C1
:1010E000000120EE1AF00001CD51D9260001CE51A9
:1010F000DA22DF500001796F00017951010D0F0EE6
:10110000F326000EF422F3500001CD25D96EF450E1
:101110000001CE21DA6EDF50C96E000120EE1AF018
:101120000001CD51D9260001CE51DA22DF2A010E6D
:1011300000017D6FCBD0DF6EC9D0C7A85AD00001A7
:1011400020EE0BF00001CD51D9260001CE51DA225C
:10115000DF2A00018251D8B448D0C7AA25D00001A7
:1011600020EE0AF00001CD51D9260001CE51DA223D
:10117000DF500001796F00017951010DF35000013A
:10118000CD25D96EF4500001CE21DA6E00017FC06A
:10119000DFFF000120EE0AF00001CD51D926000149
:1011A000CE51DA22DF2A21D0000120EE0EF000011C
:1011B000CD51D9260001CE51DA22DF2A000120EEDE
:1011C0000DF00001CD51D9260001CE51DA22060ED4
:1011D000DF6E000120EE0CF00001CD51D926000198
:1011E000CE51DA22050EDF6E50D0010E0001816F64
:1011F0004CD000018251D8B469D0000120EE0BF030
:101200000001CD51D9260001CE51DA22DF2AC7AA2A
:1012100025D0000120EE0AF00001CD51D9260001B1
:10122000CE51DA22DF500001796F00017951010DB2
:10123000F3500001CD25D96EF4500001CE21DA6EB5
:1012400000017FC0DFFF000120EE0AF00001CD5158
:10125000D9260001CE51DA22DF2A38D0C7A4C7D65A
:10126000000120EE0CF00001CD51D9260001CE5135
:10127000DA22080EDF6E010E0001816F010E0001FF
:10128000806F000E0001826F21D0000120EE0CF073
:101290000001CD51D9260001CE51DA22050E4BD7DF
:1012A000000120EE0CF00001CD51D9260001CE51F5
:1012B000DA22DF50050AD8B46BD6030AD8B481D637
:1012C000010AD8B43AD70F0AD8B4F0D60001826721
:1012D00004D000017D51D8B402D0C6A8C688000150
:1012E00020EE0AF00001CD51D9260001CE51DA22BC
:1012F000080EDF6423D00001816720D0000120EEBA
:101300000CF00001CD51D9260001CE51DA22050E94
:10131000DF6E000120EE0EF00001CD51D926000154
:10132000CE51DA22DF2A000120EE0DF00001CD516E
:10133000D9260001CE51DA22070EDF6E000181515D
:10134000D8B43FD0000120EE0BF00001CD51D926DA
:101350000001CE51DA22000110EE0AF00001CD5159
:10136000E1260001CE51E222E7500001796F000131
:101370007951010DF3500001CD25E16EF4500001CB
:10138000CE21E26EDFCFE7FF280E0001756F00016E
:10139000CEC077F00001CDC076F0000120EE0AF05B
:1013A0000001CD51D9260001CE51DA22DF500001D3
:1013B000796F00017929A5EC12F0000120EE0AF006
:1013C00041D0000120EE0EF00001CD51D9260001E0
:1013D000CE51DA22DF50D8B43DD0000120EE0EF01D
:1013E0000001CD51D9260001CE51DA22DF50000193
:1013F0007A6F000120EE0DF00001CD51D9260001D9
:10140000CE51DA22DF5000017B6F000120EE0BF09D
:101410000001CD51D9260001CE51DA22DF50000162
:101420007C6F290E0001756F0001000E0001776FBF
:1014300000017A0E0001766F030EA5EC12F0000198
:1014400020EE0EF00001CD51D9260001CE51DA2256
:10145000000EDF6E00018051D8B412002A0E000188
:10146000756F0001CEC077F00001CDC076F0000EA0
:10147000A5EC12F0000E0001806F1200E00ED36E9A
:101480009B8C0101010E0001926F0101D10E000140
:10149000916F35EC13F00101010E0001926F010113
:1014A000DE0E0001916FEBEC0FF00101010E000167
:1014B000926F0101DA0E0001916F70EC13F038ECBD
:1014C00011F0000E936E000E8A6E960E10EC13F063
:1014D000000E0001916F9B0E07EC12F09F909F9AF7
:1014E0009F989F869E0EE9EC12F09D86000E0001EB
:1014F000926F330E0001916F7C0E7CEC0FF0A4EC28
:1015000013F00F0E0101C06F010E0101BF6FDEEC81
:1015100010F00101010E0101B56F0101DC0E0101A6
:10152000B46F0101010E0101B76F0101C10E01018C
:10153000B66F0A0E40EC12F00101DD6F0101DDBF54
:1015400061D052D00101010E0101A36F0101CE0E45
:101550000101A26F0101DCC1A4F10101A56B010130
:10156000DD510101A66F0101A76B0101A6BFA7070D
:101570000101010E0101A96F0101C10E0101A86F56
:1015800067EC13F03FD0C1C1D0F13CD0020E010195
:10159000DD6F550E0101C16FAA0E0101C26F17D098
:1015A000010E0101DD6F3A0E04D0010E0101DD6F65
:1015B000A30E0101C16F0BD00101D051A80AD8B40C
:1015C000EFD7010AD8B4F1D7030AD8B4DFD70101A5
:1015D000010E0001926F0101C10E0001916F010126
:1015E000DD5189EC0CF00ED00101DC510A0AD8B4AF
:1015F000A9D7220AD8B4C7D7010AD8B4C4D7030AD6
:10160000D8B4DAD70101010E0101B56F0101DC0E7A
:101610000101B46F0101010E0101B76F0101C10E9B
:101620000101B66F0A0E25EC12F00101DD6F010118
:10163000DDBF6DD742D00101010E0101B76F01017D
:10164000DA0E0101B66F0101DCC1B8F10101B96B1D
:101650000101DD510101BA6F0101BB6B0101BABF8C
:10166000BB070101010E0101BD6F0101C10E0101A6
:10167000BC6F80EC10F04BD70101010E0101A36F8C
:101680000101CC0E0101A26F0101DCC1A4F1010135
:10169000A56B0101DD510101A66F0101A76B0101DD
:1016A000A6BFA7070101010E0101A96F0101C10E2B
:1016B0000101A86FF9EC0EF02AD70101DC510B0AE9
:1016C000D8B4B9D7150AD8B4D7D7010AD8B4D4D763
:1016D0001ED7010120EE35F00101A651D9260101E6
:1016E000A751DA22DF500101AF6F0101AF510D0D9B
:1016F000F3500101A6250101B26FF4500101A721A9
:101700000101B36F010EB2C1D9FFB3C1DAFFDF62CD
:101710006FD0010120EE01F00101B251D926010183
:10172000B351DA22DF500101A85DD8B002D0FD0E1E
:101730001200010120EE01F00101B251D926010190
:10174000B351DA22DF500101AD6F0101AD5101014A
:10175000B06F0101B16B01010001ACC192F0010158
:101760000001ABC191F0030E0101B2250101AD6F83
:10177000000E0101B3210101AE6FADC193F0AEC106
:1017800094F0B0C195F0B1C196F00CEC11F00101EC
:1017900020EE35F00101A651D9260101A751DA2228
:1017A000010110EE35F00101A651E1260101A7511A
:1017B000E222E7500101AD6F0101AD29030BDF6E9D
:1017C000010120EE02F00101B251D9260101B3510D
:1017D000DA22A9C1E1FFAAC1E2FFDFCFE7FFB2C170
:1017E000D9FFB3C1DAFF000EDF6E0101B051120064
:1017F000FC0E1200000120EE35F000016A51D926DE
:1018000000016B51DA22DF500001736F0001735148
:101810000D0DF35000016A250001766FF4500001B0
:101820006B210001776F010E76C0D9FF77C0DAFF18
:10183000DF626DD0000120EE01F000017651D92663
:1018400000017751DA22DF5000016C5DD8B002D080
:10185000FD0E1200000120EE01F000017651D926A4
:1018600000017751DA22DF500001716F00017151E0
:101870000001746F0001756B000170C061F0000120
:101880006FC060F0030E000176250001716F000E3D
:10189000000177210001726F71C062F072C063F0C5
:1018A00074C064F075C065F063EC11F0000120EEC7
:1018B00035F000016A51D92600016B51DA2200018E
:1018C00010EE35F000016A51E12600016B51E22271
:1018D000E7500001716F00017129030BDF6E0001F9
:1018E00020EE02F000017651D92600017751DA226C
:1018F0006DC0E1FF6EC0E2FFDFCFE7FF76C0D9FF2A
:1019000077C0DAFF000EDF6E000174511200FC0E8A
:1019100012000001956F000120EE19F00001CD5179
:10192000D9260001CE51DA22000EDF6E3ED0000132
:1019300020EE19F00001CD51D9260001CE51DA2256
:10194000DF500001936F00019351010DF35000012E
:101950009125D96EF45000019221DA6E000110EE4B
:1019600019F00001CD51E1260001CE51E222E750ED
:101970000001946F00019451010D0F0EF326000E2B
:10198000F422F3500001CD25E16EF4500001CE2188
:10199000E26EDFCFE7FF000120EE19F00001CD512C
:1019A000D9260001CE51DA22DF2A000120EE19F0FB
:1019B0000001CD51D9260001CE51DA22DF500001BD
:1019C000936F000195510001935DD8A0B0D700013D
:1019D00020EE19F00001CD51D9260001CE51DA22B6
:1019E000000195C0DFFF000120EE1AF00001CD518B
:1019F000D9260001CE51DA22010EDF6E000120EE61
:101A00000FF00001CD51D9260001CE51DA22DF506E
:101A1000C96EC68812000101A8C1ADF10101AE6B0B
:101A2000010120EE34F00101A651D9260101A75190
:101A3000DA22DF500101AF6F0101AF510D0DF350FC
:101A40000101A6250101B06FF4500101A721010198
:101A5000B16FB0C1D9FFB1C1DAFFDF50D8B402D045
:101A6000FF0E1200010120EE01F00101B051D92654
:101A70000101B151DA220101A8C1DFFF010120EE0D
:101A800002F00101B051D9260101B151DA22010160
:101A9000A9C1DFFF030E0101B0250001916F000E07
:101AA0000101B1210001926F01010001ABC194F06D
:101AB00001010001AAC193F0ADC195F0AEC196F04D
:101AC0000CEC11F0010120EE34F00101A651D926F1
:101AD0000101A751DA22010110EE34F00101A651F3
:101AE000E1260101A751E222E7500101AC6F01019B
:101AF000AC29030BDF6EB0C1D9FFB1C1DAFF010E13
:101B0000DF6E010E120000016CC070F00001716BFD
:101B1000000120EE34F000016A51D92600016B511A
:101B2000DA22DF500001726F000172510D0DF35087
:101B300000016A250001736FF45000016B21000160
:101B4000746F73C0D9FF74C0DAFFDF50D8B402D00D
:101B5000FF0E1200000120EE01F000017351D926A2
:101B600000017451DA2200016CC0DFFF000120EE99
:101B700002F000017351D92600017451DA220001EC
:101B80006DC0DFFF030E000173250001606F000EC2
:101B9000000174210001616F00016FC063F000015A
:101BA0006EC062F070C064F071C065F063EC11F05B
:101BB000000120EE34F000016A51D92600016B517A
:101BC000DA22000110EE34F000016A51E126000132
:101BD0006B51E222E7502E6E2E28030BDF6E73C08E
:101BE000D9FF74C0DAFF010EDF6E010E12002E6EF7
:101BF000000120EE0BF00001CD51D9260001CE519D
:101C0000DA22010EDF6E000120EE0AF00001CD5154
:101C1000D9260001CE51DA22000EDF6E2E50D8B444
:101C20003DD0C7AA21D0000120EE0CF00001CD511B
:101C3000D9260001CE51DA22050EDF6E000120EE1A
:101C40000EF00001CD51D9260001CE51DA22DF2A53
:101C5000000120EE0DF00001CD51D9260001CE513A
:101C6000DA22050EDF6E1200C7A40CD0000120EEB0
:101C70000CF00001CD51D9260001CE51DA22080E18
:101C8000DF6E1200000120EE0CF00001CD51D926CC
:101C90000001CE51DA22070EDF6E1200000120EEA5
:101CA0000CF00001CD51D9260001CE51DA22060EEA
:101CB000DF6E12000DC012F0136A20EE34F00B50EC
:101CC000D9260C50DA22DF50146E14500D0DF3504B
:101CD0000B24156EF4500C20166E15C0D9FF16C0DB
:101CE000DAFFDF50D8B402D0FF0E120020EE01F070
:101CF0001550D9261650DA220DC0DFFF20EE02F073
:101D00001550D9261650DA220EC0DFFF030E152417
:101D1000016E000E1620026E10C004F00FC003F01A
:101D200012C005F013C006F08BEC11F020EE34F079
:101D30000B50D9260C50DA2210EE34F00B50E1266D
:101D40000C50E222E750116E1128030BDF6E15C014
:101D5000D9FF16C0DAFF010EDF6E010E12009EAA37
:101D60003AD020EE08F02F50D9263050DA22DF503A
:101D70001B6E1B50010DF3502F24D96EF4503020F0
:101D8000DA6E44EC13F0DF6E20EE08F02F50D92607
:101D90003050DA22DF2A20EE08F02F50D9263050BA
:101DA000DA22080EDF6217D01F0E176E30C019F04E
:101DB0002FC018F020EE08F02F50D9263050DA222C
:101DC000DF5023EC13F020EE08F02F50D9263050CE
:101DD000DA22000EDF6E32A61200AC98AC881E0E1E
:101DE000176E000E196E000E186E000E23EC13F025
:101DF00012000101A4511E0AA511D8B4120001015C
:101E0000A4511F0AA511D8A41200000E0001966F5C
:101E1000000E0001966F1BD000019651010DF3508A
:101E20000101A825D96EF4500101A921DA6EDF5015
:101E30000001956F000195517E0AD8B402D0ADA281
:101E4000FED70001955153EC13F00001962B0001D1
:101E500096510001926F936B00019351800A00012B
:101E6000946F0101A6510001925D0101A751800A02
:101E700000019459D8B01200CFD7EACF86F0E1CF55
:101E800087F0E2CF88F0D9CF89F0DACF8AF0F3CFAC
:101E90008BF0F4CF8CF0F6CF8DF0F7CF8EF0F8CF3B
:101EA0008FF0F5CF90F09EA603D09E9688EC07F0B9
:101EB000F2A403D0F294B4EC0FF0AFEC10F090C0A9
:101EC000F5FF8FC0F8FF8EC0F7FF8DC0F6FF8CC006
:101ED000F4FF8BC0F3FF8AC0DAFF89C0D9FF88C046
:101EE000E2FF87C0E1FF86C0EAFF85C0E9FF84C04A
:101EF000FBFF83C0FAFF11000001966F000EAD6E6C
:101F0000000EAC6E000196B1AD88000196A302D020
:101F1000AD8CAC8C000196B5AD8E000196A702D0B9
:101F2000AC8801D0AC8A000196B9AD84000196BBA3
:101F3000AC86000196AD02D09D8A01D09D9A000129
:101F400096AF02D09D8801D09D9891C0B0FF00014E
:101F500092C093F093C094F00001956B00019451EE
:101F60007F6EAD8AAC8E1200000E0001616F000E14
:101F70000001606F8BEC13F00001000E0001796F1F
:101F800000017E0E0001786F0001000E00017B6FE2
:101F90000001800E00017A6F020E5BEC12F000016E
:101FA0007C6F00017D6B00017CBF7D0700017C51CF
:101FB000020A7D11D8A412000A0E0001756F0001FB
:101FC000000E0001776F0001800E0001766F020E97
:101FD000A5EC12F01200000192C0CEF0000191C0F9
:101FE000CDF0000120EE0AF00001CD51D92600010C
:101FF000CE51DA22000EDF6E000120EE0BF0000160
:10200000CD51D9260001CE51DA22000EDF6E00013B
:1020100020EE0CF00001CD51D9260001CE51DA227C
:10202000050EDF6E000120EE0EF00001CD51D92625
:102030000001CE51DA22000EDF6E1200000120EE08
:1020400034F000019151D92600019251DA22000E9C
:10205000DF6E000120EE35F000019151D92600011C
:102060009251DA22000EDF6E000E0001936F030E14
:102070000001936501D01200000193510D0DF35042
:1020800000019125D96EF45000019221DA6E000E04
:10209000DF6E0001932B030E00019365EDD7120054
:1020A000000194519311D8B426D0010E0001956F10
:1020B00006D00001D890933794370001952B00018A
:1020C00094AFF7D7000193510001915D0001945145
:1020D00000019259D8A008D0000193510001915FEE
:1020E000000194510001925B0001D8909433933326
:1020F0000001952FE7D791C091F092C092F01200A5
:10210000B6C1D9FFB7C1DAFFDE2A000EDD22B6C1A3
:10211000D9FFB7C1DAFF0001DECF91F00001DDCFBA
:1021200092F0000E0001946F0A0E0001936F50ECC4
:1021300010F000019151090A00019211D8A4120077
:10214000140E0101B26F0101B7C1B4F10101B6C1B2
:10215000B3F1020E8EEC12F00101BE6F1200316677
:1021600001D01200CAEC11F00001635100016211AC
:10217000D8A412009CEC13F0000161510001601121
:10218000D8B412000101010E0001616F01016C0E53
:102190000001606FBCEC12F00009D8A4120000012D
:1021A000000E0001616F0001970E0001606FBCEC32
:1021B00012F00009D8B4A8EC13F01200E9EC11F009
:1021C0000001965100019511D8B41200010E316E34
:1021D0000101010E0001926F01016C0E0001916F6F
:1021E00075EC12F00009D8B403D0000E316E120065
:1021F0000001000E0001926F0001970E0001916F27
:1022000075EC12F00009D8B403D0000E316E120044
:102210000A0E5DEC13F0DCD70001010194C0A5F1BA
:102220000001010193C0A4F10001010192C0A3F1DA
:102230000001010191C0A2F110D0A4C1D9FFA5C134
:10224000DAFFA2C1E1FFA3C1E2FFDFCFE7FF010197
:10225000A44BA52B0101A24BA32B00019507D8A0ED
:10226000960700019529D8B49629D8B41200E5D76D
:10227000000E316E0001000E0001926F0001970EFA
:102280000001916F1EEC10F00101010E0001926F30
:1022900001016C0E0001916F1EEC10F00101010EA6
:1022A0000001926F0101360E0001916F1EEC10F0DB
:1022B0000101010E0001926F0101000E0001916FFA
:1022C0001EEC10F01200000163C069F0000162C052
:1022D00068F0000161C067F0000160C066F010D0D6
:1022E00068C0D9FF69C0DAFF66C0E1FF67C0E2FFDE
:1022F000DFCFE7FF0001684B692B0001664B672BBE
:1023000000016407D8A0650700016429D8B46529D5
:10231000D8B41200E5D704C00AF003C009F002C027
:1023200008F001C007F00ED009C0D9FF0AC0DAFFDB
:1023300007C0E1FF08C0E2FFDFCFE7FF094A0A2A32
:10234000074A082A0506D8A006060528D8B4062894
:10235000D8B41200E9D7F2AC07D0000E0001946F98
:10236000000E0001936F120094EC13F000019251E3
:1023700000019111D8B407D0000E0001946F000E37
:102380000001936F1200000E0001946F010E000116
:10239000936F1200F2AC07D0000E0001636F000EC5
:1023A0000001626F12009CEC13F00001615100010A
:1023B0006011D8B407D0000E0001636F000E000159
:1023C000626F1200000E0001636F010E0001626F68
:1023D0001200ABEC11F00001945100019311D8A44C
:1023E0000FD094EC13F00001925100019111D8A488
:1023F00007D0000E0001966F010E0001956F1200CC
:10240000000E0001966F000E0001956F1200000192
:10241000936F00019151F30B9A6E93C092F07F0E6F
:10242000000192170001D8909235CD6E000ECF6E4C
:10243000000ECE6E9E90000193AF02D09D8001D021
:102440009D909ABE9A86CD8012000101B86F00015E
:10245000000E0101A76F0001970E0101A66FB8C120
:10246000A8F10101B5C1AAF10101B4C1A9F10101AD
:10247000B7C1ACF10101B6C1ABF169EC0BF01200D0
:102480000101B86F0101010E0101A76F01016C0E7E
:102490000101A66FB8C1A8F10101B5C1AAF10101FE
:1024A000B4C1A9F10101B7C1ACF10101B6C1ABF1F1
:1024B00069EC0BF012002E6E0101010E00016B6F32
:1024C0000101000E00016A6F2EC06CF0000179C09E
:1024D0006EF0000178C06DF000017BC070F000016B
:1024E0007AC06FF0FAEC0BF01200000120EE35F02C
:1024F00000019151D92600019251DA22DF500001EA
:10250000936F000193510D0DF35000019125D96E89
:10251000F45000019221DA6EDF5012000101B56F14
:102520000101010E0101A76F0101000E0101A66F5B
:10253000B5C1A8F1B2C1A9F10101B4C1ABF101016A
:10254000B3C1AAF10BEC0DF012000001786F01018C
:10255000010E00016B6F01016C0E00016A6F78C003
:102560006CF075C06DF0000177C06FF0000176C0AF
:102570006EF083EC0DF01200000120EE35F000014A
:102580006051D92600016151DA22DF502E6E2E50A3
:102590000D0DF35000016025D96EF450000161214A
:1025A000DA6EDF50120082EC13F001C01BF002C0A3
:1025B0001CF00B0E176E000E196E000E186E000E3A
:1025C00023EC13F0000E026E000E016E79EC13F096
:1025D00012000001916F9388938A91C0C8FF000E8A
:1025E000C76E000EC66E000EC56E0E0EC612C78EEA
:1025F0008188818AC580C68A120001EE00F0A20E91
:10260000EE6AE806FDE100EE97F0360EEE6AE806A7
:10261000FDE1326A316A000EF86E00013EEF0AF009
:102620000001916F000191517F0BD56E000ED76EA6
:10263000000ED66EF294000191AF02D0F28A01D062
:10264000F29AD58E12001A6E0001000E0C6E000177
:10265000970E0B6E1AC00DF017C00EF019C010F0D7
:1026600018C00FF05AEC0EF01200000192C030F0CA
:10267000000191C02FF020EE08F02F50D9263050E5
:10268000DA22000EDF6E1200F20E3216ACAC03D06E
:102690003290ACB03280ACB43284ACB23286AFCFC0
:1026A00001F0015012000001916FADAC03D0AD906C
:1026B00032B2AD8091C0AEFF12000001916FFA0EF0
:1026C00000F0E82EFDD70001912FF9D7120001018B
:1026D0000001A9C192F001010001A8C191F012000E
:1026E00091C0D9FF92C0DAFF000EDE6E000EDD6EE3
:1026F000120001C003F002C004F004C0CFFF03C009
:10270000CEFF1200CECF03F0CFCF04F003C001F014
:1027100004C002F0120060C062F061C063F063C0E8
:10272000D7FF62C0D6FF1200000EF2AE010E00010C
:10273000916F0001926B1200000EF2AE010E0001CB
:10274000606F0001616B1200D08EF28EF28C12006D
:06275000D38E030012000D
:08FFF8008AF795FFF2F9FFF111
:00000001FF
