:040000005BEF00F0C2
:10000800FACF83F0FBCF84F0E9CF85F0C7EF07F094
:10001800D8CF1DF0E8CF1EF0E0CF1FF0FACF20F0C8
:10002800FBCF21F0E9CF22F0EACF23F0E1CF24F093
:10003800E2CF25F0D9CF26F0DACF27F0F3CF28F09A
:10004800F4CF29F0F6CF2AF0F7CF2BF0F8CF2CF029
:10005800F5CF2DF09EA003D09E9076EC0BF09EAAD3
:1000680003D09E9A7DEC07F02DC0F5FF2CC0F8FF59
:100078002BC0F7FF2AC0F6FF29C0F4FF28C0F3FF02
:1000880027C0DAFF26C0D9FF25C0E2FF24C0E1FF60
:1000980023C0EAFF22C0E9FF21C0FBFF20C0FAFF0E
:1000A8001FC0E0FF1EC0E8FF1DC0D8FF1000A0EF72
:1000B8000BF0000E0001826F000E00017D6F000E34
:1000C8000001816F000E0001806F000E00017E6F3D
:1000D800C6AC24D0C69C000120EE0CF00001CD5126
:1000E800D9260001CE51DA22050EDF6E010E00017D
:1000F8007E6F000120EE0EF00001CD51D9260001DF
:10010800CE51DA22DF2A000120EE0DF00001CD5198
:10011800D9260001CE51DA22040EDF6EC7A005D021
:10012800C9CF7FF0010E0001826F00017E679FD169
:1001380088D1C7A69CD100018251C5EC06F0000108
:1001480020EE0CF00001CD51D9260001CE51DA2263
:10015800080EDF628CD1000E0001826F010E0001D3
:10016800806F85D1C7A82AD0000120EE0BF00001CE
:10017800CD51D9260001CE51DA22DF2A0001825161
:10018800D8B454D1C7BA04D0010E0001816F4ED142
:10019800000120EE0EF00001CD51D9260001CE510C
:1001A800DA22DF2A000120EE0DF00001CD51D92618
:1001B8000001CE51DA22060EDF6E38D100018251DD
:1001C800D8B455D1000120EE0BF00001CD51D9264D
:1001D8000001CE51DA22DF2AC7BA19D0C7B40BD032
:1001E800000120EE0CF00001CD51D9260001CE51BE
:1001F800DA22070E71D0000120EE0CF00001CD517B
:10020800D9260001CE51DA22080EDF6E08D100018E
:1002180020EE0EF00001CD51D9260001CE51DA2290
:10022800DF2A000120EE0CF00001CD51D926000193
:10023800CE51DA22050EDF6E000120EE0DF000012E
:10024800CD51D9260001CE51DA22060E45D0000143
:1002580020EE1AF00001CD51D9260001CE51DA2244
:10026800DF500001796F000120EE19F00001CD5137
:10027800D9260001CE51DA22DF500001795DD8B0CD
:10028800D5D0000120EE1AF00001CD51D926000189
:10029800CE51DA22DF500001796F00017951010D4A
:1002A8000F0EF326000EF422F3500001CD25D96E6F
:1002B800F4500001CE21DA6EDF50C96E000120EE45
:1002C8001AF00001CD51D9260001CE51DA22DF2AD9
:1002D800010E00017D6FCBD0DF6EC9D0C7A85AD000
:1002E800000120EE0BF00001CD51D9260001CE51BE
:1002F800DA22DF2A00018251D8B448D0C7AA25D013
:10030800000120EE0AF00001CD51D9260001CE519E
:10031800DA22DF500001796F00017951010DF350A5
:100328000001CD25D96EF4500001CE21DA6E00010E
:100338007FC0DFFF000120EE0AF00001CD51D92671
:100348000001CE51DA22DF2A21D0000120EE0EF082
:100358000001CD51D9260001CE51DA22DF2A000151
:1003680020EE0DF00001CD51D9260001CE51DA2240
:10037800060EDF6E000120EE0CF00001CD51D926EB
:100388000001CE51DA22050EDF6E50D0010E0001B9
:10039800816F4CD000018251D8B469D0000120EEA1
:1003A8000BF00001CD51D9260001CE51DA22DF2A07
:1003B800C7AA25D0000120EE0AF00001CD51D926A8
:1003C8000001CE51DA22DF500001796F0001795126
:1003D800010DF3500001CD25D96EF4500001CE2156
:1003E800DA6E00017FC0DFFF000120EE0AF0000195
:1003F800CD51D9260001CE51DA22DF2A38D0C7A440
:10040800C7D6000120EE0CF00001CD51D92600011D
:10041800CE51DA22080EDF6E010E0001816F010E47
:100428000001806F000E0001826F21D0000120EED4
:100438000CF00001CD51D9260001CE51DA22050E6B
:100448004BD7000120EE0CF00001CD51D926000158
:10045800CE51DA22DF50050AD8B46BD6030AD8B4D5
:1004680081D6010AD8B43AD70F0AD8B4F0D6000119
:10047800826704D000017D51D8B402D0C6A8C688CE
:10048800000120EE0AF00001CD51D9260001CE511D
:10049800DA22080EDF6423D00001816720D0000132
:1004A80020EE0CF00001CD51D9260001CE51DA2200
:1004B800050EDF6E000120EE0EF00001CD51D926A9
:1004C8000001CE51DA22DF2A000120EE0DF00001F2
:1004D800CD51D9260001CE51DA22070EDF6E000178
:1004E8008151D8B43FD0000120EE0BF00001CD516E
:1004F800D9260001CE51DA22000110EE0AF00001DF
:10050800CD51E1260001CE51E222E7500001796F7A
:1005180000017951010DF3500001CD25E16EF45031
:100528000001CE21E26EDFCFE7FF280E0001756FD4
:100538000001CEC077F00001CDC076F0000120EEBA
:100548000AF00001CD51D9260001CE51DA22DF5040
:100558000001796F0001792948EC0BF0000120EEC9
:100568000AF041D0000120EE0EF00001CD51D9264D
:100578000001CE51DA22DF50D8B43DD0000120EE80
:100588000EF00001CD51D9260001CE51DA22DF50FC
:1005980000017A6F000120EE0DF00001CD51D9263F
:1005A8000001CE51DA22DF5000017B6F000120EEFE
:1005B8000BF00001CD51D9260001CE51DA22DF50CF
:1005C80000017C6F290E0001756F0001000E00010B
:1005D800776F00017A0E0001766F030E48EC0BF07E
:1005E800000120EE0EF00001CD51D9260001CE51B8
:1005F800DA22000EDF6E00018051D8B412002A0EF4
:100608000001756F0001CEC077F00001CDC076F013
:10061800000E48EC0BF0000E0001806F1200E00E97
:10062800D36E9B8C0101010E0001926F0101CF0E68
:100638000001916FD8EC0BF00101010E0001926FDF
:100648000101D80E0001916F75EC08F00101010E4F
:100658000001926F0101D40E0001916F09EC0CF0BA
:10066800C2EC09F0000E936E000E8A6E960EB3EC83
:100678000BF0000E0001916F9B0E91EC0AF09F9019
:100688009F9A9F869E0E8CEC0BF09D86000E0001B3
:10069800926F190E0001916F6C0E06EC08F03DEC9C
:1006A8000CF068EC09F00101010E0101B56F0101C0
:1006B800D60E0101B46F0101010E0101B76F0101EE
:1006C800BF0E0101B66F0A0ECAEC0AF00101D76F1E
:1006D8000101D7BF61D052D00101010E0101A36F02
:1006E8000101CC0E0101A26F0101D6C1A4F10101E3
:1006F800A56B0101D7510101A66F0101A76B01018B
:10070800A6BFA7070101010E0101A96F0101BF0ED4
:100718000101A86F00EC0CF03FD0BFC1CEF13CD076
:10072800020E0101D76F550E0101BF6FAA0E01011C
:10073800C06F17D0010E0101D76F3A0E04D0010E19
:100748000101D76FA30E0101BF6F0BD00101CE517C
:10075800A80AD8B4EFD7010AD8B4F1D7030AD8B495
:10076800DFD70101010E0001926F0101BF0E0001E8
:10077800916F0101D75157EC05F00ED00101D65108
:100788000A0AD8B4A9D7220AD8B4C7D7010AD8B454
:10079800C4D7030AD8B4DAD70101010E0101B56F35
:1007A8000101D60E0101B46F0101010E0101B76FFD
:1007B8000101BF0E0101B66F0A0EAFEC0AF001018C
:1007C800D76F0101D7BF6DD742D00101010E0101DA
:1007D800B76F0101D40E0101B66F0101D6C1B8F19E
:1007E8000101B96B0101D7510101BA6F0101BB6B5E
:1007F8000101BABFBB070101010E0101BD6F010173
:10080800BF0E0101BC6F0AEC09F04BD70101010EC4
:100818000101A36F0101CA0E0101A26F0101D6C136
:10082800A4F10101A56B0101D7510101A66F0101D6
:10083800A76B0101A6BFA7070101010E0101A96F5E
:100848000101BF0E0101A86FFFEC0AF02AD70101D0
:10085800D6510B0AD8B4B9D7150AD8B4D7D7010AD4
:10086800D8B4D4D71ED7010120EE35F00101A65126
:10087800D9260101A751DA22DF500101AF6F01012A
:10088800AF510D0DF3500101A6250101B26FF450CF
:100898000101A7210101B36F010EB2C1D9FFB3C194
:1008A800DAFFDF626FD0010120EE01F00101B251E1
:1008B800D9260101B351DA22DF500101A85DD8B071
:1008C80002D0FD0E1200010120EE01F00101B2512B
:1008D800D9260101B351DA22DF500101AD6F0101C0
:1008E800AD510101B06F0101B16B01010001ACC153
:1008F80092F001010001ABC191F0030E0101B22594
:100908000101AD6F000E0101B3210101AE6FADC150
:1009180093F0AEC194F0B0C195F0B1C196F096ECE9
:1009280009F0010120EE35F00101A651D926010197
:10093800A751DA22010110EE35F00101A651E12696
:100948000101A751E222E7500101AD6F0101AD2974
:10095800030BDF6E010120EE02F00101B251D9262E
:100968000101B351DA22A9C1E1FFAAC1E2FFDFCF39
:10097800E7FFB2C1D9FFB3C1DAFF000EDF6E010194
:10098800B0511200FC0E1200000120EE35F00001FB
:100998006A51D92600016B51DA22DF500001736FCA
:1009A800000173510D0DF35000016A250001766FA7
:1009B800F45000016B210001776F010E76C0D9FF5A
:1009C80077C0DAFFDF626DD0000120EE01F0000190
:1009D8007651D92600017751DA22DF5000016C5D8B
:1009E800D8B002D0FD0E1200000120EE01F0000187
:1009F8007651D92600017751DA22DF500001716F54
:100A0800000171510001746F0001756B000170C025
:100A180061F000016FC060F0030E0001762500014F
:100A2800716F000E000177210001726F71C062F0D2
:100A380072C063F074C064F075C065F0EDEC09F045
:100A4800000120EE35F000016A51D92600016B51F2
:100A5800DA22000110EE35F000016A51E1260001AA
:100A68006B51E222E7500001716F00017129030BFD
:100A7800DF6E000120EE02F000017651D926000158
:100A88007751DA226DC0E1FF6EC0E2FFDFCFE7FFEA
:100A980076C0D9FF77C0DAFF000EDF6E000174510F
:100AA8001200FC0E12000001956F000120EE19F0F3
:100AB8000001CD51D9260001CE51DA22000EDF6E99
:100AC8003ED0000120EE19F00001CD51D9260001D9
:100AD800CE51DA22DF500001936F00019351010DCE
:100AE800F35000019125D96EF45000019221DA6E7D
:100AF800000110EE19F00001CD51E1260001CE51A0
:100B0800E222E7500001946F00019451010D0F0E8D
:100B1800F326000EF422F3500001CD25E16EF450C7
:100B28000001CE21E26EDFCFE7FF000120EE19F0D1
:100B38000001CD51D9260001CE51DA22DF2A000169
:100B480020EE19F00001CD51D9260001CE51DA224C
:100B5800DF500001936F000195510001935DD8A00B
:100B6800B0D7000120EE19F00001CD51D9260001BF
:100B7800CE51DA22000195C0DFFF000120EE1AF005
:100B88000001CD51D9260001CE51DA22010EDF6EC7
:100B9800000120EE0FF00001CD51D9260001CE5101
:100BA800DA22DF50C96EC68812000101A8C1ADF172
:100BB8000101AE6B010120EE34F00101A651D926E6
:100BC8000101A751DA22DF500101AF6F0101AF51D6
:100BD8000D0DF3500101A6250101B06FF45001017C
:100BE800A7210101B16FB0C1D9FFB1C1DAFFDF5050
:100BF800D8B402D0FF0E1200010120EE01F001016D
:100C0800B051D9260101B151DA220101A8C1DFFF93
:100C1800010120EE02F00101B051D9260101B151C4
:100C2800DA220101A9C1DFFF030E0101B02500018D
:100C3800916F000E0101B1210001926F01010001C5
:100C4800ABC194F001010001AAC193F0ADC195F0C8
:100C5800AEC196F096EC09F0010120EE34F00101E6
:100C6800A651D9260101A751DA22010110EE34F06C
:100C78000101A651E1260101A751E222E750010135
:100C8800AC6F0101AC29030BDF6EB0C1D9FFB1C154
:100C9800DAFF010EDF6E010E120000016CC070F069
:100CA8000001716B000120EE34F000016A51D92671
:100CB80000016B51DA22DF500001726F000172519E
:100CC8000D0DF35000016A250001736FF450000107
:100CD8006B210001746F73C0D9FF74C0DAFFDF5055
:100CE800D8B402D0FF0E1200000120EE01F000017E
:100CF8007351D92600017451DA2200016CC0DFFF5C
:100D0800000120EE02F000017351D9260001745150
:100D1800DA2200016DC0DFFF030E00017325000118
:100D2800606F000E000174210001616F00016FC047
:100D380063F000016EC062F070C064F071C065F0CD
:100D4800EDEC09F0000120EE34F000016A51D926DB
:100D580000016B51DA22000110EE34F000016A51F3
:100D6800E12600016B51E222E7502E6E2E28030B7C
:100D7800DF6E73C0D9FF74C0DAFF010EDF6E010E9B
:100D880012002E6E000120EE0BF00001CD51D92685
:100D98000001CE51DA22010EDF6E000120EE0AF0CA
:100DA8000001CD51D9260001CE51DA22000EDF6EA6
:100DB8002E50D8B43DD0C7AA21D0000120EE0CF0A7
:100DC8000001CD51D9260001CE51DA22050EDF6E81
:100DD800000120EE0EF00001CD51D9260001CE51C0
:100DE800DA22DF2A000120EE0DF00001CD51D926CC
:100DF8000001CE51DA22050EDF6E1200C7A40CD016
:100E0800000120EE0CF00001CD51D9260001CE5191
:100E1800DA22080EDF6E1200000120EE0CF000014D
:100E2800CD51D9260001CE51DA22070EDF6E12000D
:100E3800000120EE0CF00001CD51D9260001CE5161
:100E4800DA22060EDF6E12000DC012F0136A20EED1
:100E580034F00B50D9260C50DA22DF50146E14509F
:100E68000D0DF3500B24156EF4500C20166E15C0A2
:100E7800D9FF16C0DAFFDF50D8B402D0FF0E120037
:100E880020EE01F01550D9261650DA220DC0DFFFEA
:100E980020EE02F01550D9261650DA220EC0DFFFD8
:100EA800030E1524016E000E1620026E10C004F009
:100EB8000FC003F012C005F013C006F015EC0AF0DD
:100EC80020EE34F00B50D9260C50DA2210EE34F014
:100ED8000B50E1260C50E222E750116E1128030B4B
:100EE800DF6E15C0D9FF16C0DAFF010EDF6E010EE6
:100EF80012009EAA3AD020EE04F02F50D926305086
:100F0800DA22DF501B6E1B50010DF3502F24D96ECF
:100F1800F4503020DA6EE7EC0BF0DF6E20EE04F0D0
:100F28002F50D9263050DA22DF2A20EE04F02F5035
:100F3800D9263050DA22040EDF6217D01F0E176E42
:100F480030C019F02FC018F020EE04F02F50D92629
:100F58003050DA22DF50C6EC0BF020EE04F02F50B0
:100F6800D9263050DA22000EDF6E32A61200AC9875
:100F7800AC881E0E176E000E196E000E186E000E4D
:100F8800C6EC0BF01200EACF86F0E1CF87F0E2CF93
:100F980088F0D9CF89F0DACF8AF0F3CF8BF0F4CF8D
:100FA8008CF0F6CF8DF0F7CF8EF0F8CF8FF0F5CF2D
:100FB80090F09EA603D09E965DEC00F0F2A403D0BC
:100FC800F2943EEC08F039EC09F090C0F5FF8FC0C0
:100FD800F8FF8EC0F7FF8DC0F6FF8CC0F4FF8BC002
:100FE800F3FF8AC0DAFF89C0D9FF88C0E2FF87C053
:100FF800E1FF86C0EAFF85C0E9FF84C0FBFF83C02C
:10100800FAFF11000001966F000EAD6E000EAC6E77
:10101800000196B1AD88000196A302D0AD8CAC8CCE
:10102800000196B5AD8E000196A702D0AC8801D01C
:10103800AC8A000196B9AD84000196BBAC8600016C
:1010480096AD02D09D8A01D09D9A000196AF02D03C
:101058009D8801D09D9891C0B0FF000192C093F087
:1010680093C094F00001956B000194517F6EAD8A96
:10107800AC8E1200000E0001616F000E0001606F5F
:1010880024EC0CF00001000E0001796F00017E0EC7
:101098000001786F0001000E00017B6F0001800ED7
:1010A80000017A6F020EE5EC0AF000017C6F000186
:1010B8007D6B00017CBF7D0700017C51020A7D1118
:1010C800D8A412000A0E0001756F0001000E00017D
:1010D800776F0001800E0001766F020E48EC0BF06E
:1010E8001200000192C0CEF0000191C0CDF00001C5
:1010F80020EE0AF00001CD51D9260001CE51DA22A6
:10110800000EDF6E000120EE0BF00001CD51D92654
:101118000001CE51DA22000EDF6E000120EE0CF045
:101128000001CD51D9260001CE51DA22050EDF6E1D
:10113800000120EE0EF00001CD51D9260001CE515C
:10114800DA22000EDF6E1200000120EE34F00001FA
:101158009151D92600019251DA22000EDF6E00016A
:1011680020EE35F000019151D92600019251DA2282
:10117800000EDF6E000E0001936F030E00019365F1
:1011880001D01200000193510D0DF350000191257B
:10119800D96EF45000019221DA6E000EDF6E000164
:1011A800932B030E00019365EDD7120000019451B3
:1011B8009311D8B426D0010E0001956F06D0000116
:1011C800D890933794370001952B000194AFF7D747
:1011D800000193510001915D000194510001925961
:1011E800D8A008D0000193510001915F00019451EB
:1011F8000001925B0001D890943393330001952F3E
:10120800E7D791C091F092C092F01200B6C1D9FF11
:10121800B7C1DAFFDE2A000EDD22B6C1D9FFB7C199
:10122800DAFF0001DECF91F00001DDCF92F0000E71
:101238000001946F0A0E0001936FDAEC08F00001C8
:101248009151090A00019211D8A41200140E01014B
:10125800B26F0101B7C1B4F10101B6C1B3F1020E19
:1012680031EC0BF00101BE6F1200316601D01200A3
:1012780054EC0AF00001635100016211D8A4120075
:1012880035EC0CF00001615100016011D8B4120076
:101298000101010E0001616F01016C0E0001606F18
:1012A8005FEC0BF00009D8A412000001000E000149
:1012B800616F0001970E0001606F5FEC0BF0000991
:1012C800D8B441EC0CF0120073EC0AF0000196510E
:1012D80000019511D8B41200010E316E0101010E02
:1012E8000001926F01016C0E0001916F18EC0BF078
:1012F8000009D8B403D0000E316E12000001000EB0
:101308000001926F0001970E0001916F18EC0BF02D
:101318000009D8B403D0000E316E12000A0EF6ECA4
:101328000BF0DCD70001010194C0A5F10001010117
:1013380093C0A4F10001010192C0A3F100010101D1
:1013480091C0A2F110D0A4C1D9FFA5C1DAFFA2C1F2
:10135800E1FFA3C1E2FFDFCFE7FF0101A44BA52B0B
:101368000101A24BA32B00019507D8A09607000105
:101378009529D8B49629D8B41200E5D7000E316E55
:101388000001000E0001926F0001970E0001916F9D
:10139800A8EC08F00101010E0001926F01016C0E2A
:1013A8000001916FA8EC08F00101010E0001926F95
:1013B8000101360E0001916FA8EC08F00101010E41
:1013C8000001926F0101000E0001916FA8EC08F076
:1013D8001200000163C069F0000162C068F00001FA
:1013E80061C067F0000160C066F010D068C0D9FF26
:1013F80069C0DAFF66C0E1FF67C0E2FFDFCFE7FF41
:101408000001684B692B0001664B672B00016407DC
:10141800D8A0650700016429D8B46529D8B412009A
:10142800E5D704C00AF003C009F002C008F001C003
:1014380007F00ED009C0D9FF0AC0DAFF07C0E1FFE4
:1014480008C0E2FFDFCFE7FF094A0A2A074A082A4D
:101458000506D8A006060528D8B40628D8B4120070
:10146800E9D7F2AC07D0000E0001946F000E00011E
:10147800936F12002DEC0CF00001925100019111B4
:10148800D8B407D0000E0001946F000E0001936FCE
:101498001200000E0001946F010E0001936F1200FC
:1014A800F2AC07D0000E0001636F000E0001626FFE
:1014B800120035EC0CF00001615100016011D8B444
:1014C80007D0000E0001636F000E0001626F12006A
:1014D800000E0001636F010E0001626F120035EC0F
:1014E8000AF00001945100019311D8A40FD02DECFB
:1014F8000CF00001925100019111D8A407D0000E00
:101508000001966F010E0001956F1200000E000198
:10151800966F000E0001956F12000001936F000195
:101528009151F30B9A6E93C092F07F0E00019217BF
:101538000001D8909235CD6E000ECF6E000ECE6EA3
:101548009E90000193AF02D09D8001D09D909ABEDD
:101558009A86CD8012000101B86F0001000E0101CA
:10156800A76F0001970E0101A66FB8C1A8F101018C
:10157800B5C1AAF10101B4C1A9F10101B7C1ACF12A
:101588000101B6C1ABF137EC04F012000101B86FEC
:101598000101010E0101A76F01016C0E0101A66F87
:1015A800B8C1A8F10101B5C1AAF10101B4C1A9F1FD
:1015B8000101B7C1ACF10101B6C1ABF137EC04F0E0
:1015C80012002E6E0101010E00016B6F0101000E69
:1015D80000016A6F2EC06CF0000179C06EF0000146
:1015E80078C06DF000017BC070F000017AC06FF028
:1015F800C8EC04F012000101A4511E0AA511D8B4C8
:1016080012000101A4511F0AA511D8A4120001015A
:10161800A6510101A825D96E0101A7510101A921EF
:10162800DA6E000EDF6E1200000120EE35F00001C8
:101638009151D92600019251DA22DF500001936FAF
:10164800000193510D0DF35000019125D96EF4500E
:1016580000019221DA6EDF5012000101B56F01011D
:10166800010E0101A76F0101000E0101A66FB5C1AE
:10167800A8F1B2C1A9F10101B4C1ABF10101B3C133
:10168800AAF1D9EC05F012000001786F0101010EF2
:1016980000016B6F01016C0E00016A6F78C06CF07D
:1016A80075C06DF0000177C06FF0000176C06EF074
:1016B80051EC06F01200000120EE35F000016051F7
:1016C800D92600016151DA22DF502E6E2E500D0D01
:1016D800F35000016025D96EF45000016121DA6EE3
:1016E800DF5012001BEC0CF001C01BF002C01CF014
:1016F8000B0E176E000E196E000E186E000EC6EC5B
:101708000BF0000E026E000E016E12EC0CF01200CF
:101718000001916F9388938A91C0C8FF000EC76E2D
:10172800000EC66E000EC56E0E0EC612C78E8188DC
:10173800818AC580C68A120001EE00F0A20EEE6A08
:10174800E806FDE100EE97F0360EEE6AE806FDE1E8
:10175800326A316A000EF86E000113EF03F00001DF
:10176800916F000191517F0BD56E000ED76E000E60
:10177800D66EF294000191AF02D0F28A01D0F29AAB
:10178800D58E12001A6E0001000E0C6E0001970E25
:101798000B6E1AC00DF017C00EF019C010F018C06B
:1017A8000FF028EC07F01200000192C030F00001A1
:1017B80091C02FF020EE04F02F50D9263050DA22B5
:1017C800000EDF6E1200F20E3216ACAC03D032906F
:1017D800ACB03280ACB43284ACB23286AFCF01F058
:1017E800015012000001916FFA0E00F0E82EFDD7AB
:1017F8000001912FF9D7120001010001A9C192F04F
:1018080001010001A8C191F0120091C0D9FF92C056
:10181800DAFF000EDE6E000EDD6E120001C003F06E
:1018280002C004F004C0CFFF03C0CEFF1200CECF29
:1018380003F0CFCF04F003C001F004C002F012009F
:1018480060C062F061C063F063C0D7FF62C0D6FFBA
:101858001200000EF2AE010E0001916F0001926BB2
:101868001200000EF2AE010E0001606F0001616B04
:101878001200D08EF28EF28C1200D38E030012006A
:08FFF8008AF795FFF2F9FFF111
:00000001FF
